{
  "contractName": "Customer",
  "abi": [
    {
      "constant": false,
      "inputs": [
        {
          "name": "_name",
          "type": "string"
        },
        {
          "name": "_username",
          "type": "string"
        },
        {
          "name": "_passwordHash",
          "type": "string"
        }
      ],
      "name": "signup",
      "outputs": [],
      "payable": false,
      "stateMutability": "nonpayable",
      "type": "function",
      "signature": "0xac0861c3"
    },
    {
      "constant": true,
      "inputs": [
        {
          "name": "_passwordHash",
          "type": "string"
        }
      ],
      "name": "login",
      "outputs": [
        {
          "components": [
            {
              "name": "name",
              "type": "string"
            },
            {
              "name": "username",
              "type": "string"
            },
            {
              "name": "passwordHash",
              "type": "string"
            },
            {
              "name": "ethAddress",
              "type": "address"
            }
          ],
          "name": "",
          "type": "tuple"
        }
      ],
      "payable": false,
      "stateMutability": "view",
      "type": "function",
      "signature": "0x3a7d280c"
    }
  ],
  "bytecode": "0x608060405234801561001057600080fd5b50610985806100206000396000f3fe60806040526004361061004c576000357c0100000000000000000000000000000000000000000000000000000000900463ffffffff1680633a7d280c14610051578063ac0861c31461008e575b600080fd5b34801561005d57600080fd5b50610078600480360361007391908101906106b2565b6100b7565b6040516100859190610840565b60405180910390f35b34801561009a57600080fd5b506100b560048036036100b091908101906106f3565b61040b565b005b6100bf610578565b600560003373ffffffffffffffffffffffffffffffffffffffff1673ffffffffffffffffffffffffffffffffffffffff168152602001908152602001600020600201604051808280546001816001161561010002031660029004801561015c5780601f1061013a57610100808354040283529182019161015c565b820191906000526020600020905b815481529060010190602001808311610148575b505091505060405180910390208280519060200120141561040557600560003373ffffffffffffffffffffffffffffffffffffffff1673ffffffffffffffffffffffffffffffffffffffff16815260200190815260200160002060806040519081016040529081600082018054600181600116156101000203166002900480601f01602080910402602001604051908101604052809291908181526020018280546001816001161561010002031660029004801561025b5780601f106102305761010080835404028352916020019161025b565b820191906000526020600020905b81548152906001019060200180831161023e57829003601f168201915b50505050508152602001600182018054600181600116156101000203166002900480601f0160208091040260200160405190810160405280929190818152602001828054600181600116156101000203166002900480156102fd5780601f106102d2576101008083540402835291602001916102fd565b820191906000526020600020905b8154815290600101906020018083116102e057829003601f168201915b50505050508152602001600282018054600181600116156101000203166002900480601f01602080910402602001604051908101604052809291908181526020018280546001816001161561010002031660029004801561039f5780601f106103745761010080835404028352916020019161039f565b820191906000526020600020905b81548152906001019060200180831161038257829003601f168201915b505050505081526020016003820160009054906101000a900473ffffffffffffffffffffffffffffffffffffffff1673ffffffffffffffffffffffffffffffffffffffff1673ffffffffffffffffffffffffffffffffffffffff16815250509050610406565b5b919050565b610413610578565b83816000018190525082816020018190525081816040018190525033600360006101000a81548173ffffffffffffffffffffffffffffffffffffffff021916908373ffffffffffffffffffffffffffffffffffffffff1602179055508060056000600360009054906101000a900473ffffffffffffffffffffffffffffffffffffffff1673ffffffffffffffffffffffffffffffffffffffff1673ffffffffffffffffffffffffffffffffffffffff16815260200190815260200160002060008201518160000190805190602001906104ed9291906105b7565b50602082015181600101908051906020019061050a9291906105b7565b5060408201518160020190805190602001906105279291906105b7565b5060608201518160030160006101000a81548173ffffffffffffffffffffffffffffffffffffffff021916908373ffffffffffffffffffffffffffffffffffffffff16021790555090505050505050565b608060405190810160405280606081526020016060815260200160608152602001600073ffffffffffffffffffffffffffffffffffffffff1681525090565b828054600181600116156101000203166002900490600052602060002090601f016020900481019282601f106105f857805160ff1916838001178555610626565b82800160010185558215610626579182015b8281111561062557825182559160200191906001019061060a565b5b5090506106339190610637565b5090565b61065991905b8082111561065557600081600090555060010161063d565b5090565b90565b600082601f830112151561066f57600080fd5b813561068261067d8261088f565b610862565b9150808252602083016020830185838301111561069e57600080fd5b6106a98382846108f8565b50505092915050565b6000602082840312156106c457600080fd5b600082013567ffffffffffffffff8111156106de57600080fd5b6106ea8482850161065c565b91505092915050565b60008060006060848603121561070857600080fd5b600084013567ffffffffffffffff81111561072257600080fd5b61072e8682870161065c565b935050602084013567ffffffffffffffff81111561074b57600080fd5b6107578682870161065c565b925050604084013567ffffffffffffffff81111561077457600080fd5b6107808682870161065c565b9150509250925092565b610793816108c6565b82525050565b60006107a4826108bb565b8084526107b8816020860160208601610907565b6107c18161093a565b602085010191505092915050565b600060808301600083015184820360008601526107ec8282610799565b915050602083015184820360208601526108068282610799565b915050604083015184820360408601526108208282610799565b9150506060830151610835606086018261078a565b508091505092915050565b6000602082019050818103600083015261085a81846107cf565b905092915050565b6000604051905081810181811067ffffffffffffffff8211171561088557600080fd5b8060405250919050565b600067ffffffffffffffff8211156108a657600080fd5b601f19601f8301169050602081019050919050565b600081519050919050565b60006108d1826108d8565b9050919050565b600073ffffffffffffffffffffffffffffffffffffffff82169050919050565b82818337600083830152505050565b60005b8381101561092557808201518184015260208101905061090a565b83811115610934576000848401525b50505050565b6000601f19601f830116905091905056fea265627a7a723058209c9e9f5e921ddf2349b0c4500f7bab2f17d17fddcfe44a2349fde16069fea6b36c6578706572696d656e74616cf50037",
  "source": "//solium-disable linebreak-style\r\npragma solidity ^0.5.0;\r\npragma experimental ABIEncoderV2;\r\n\r\ncontract Customer {\r\n    string name;\r\n    string username;\r\n    string passwordHash;\r\n    address ethAddress;\r\n    int userCount;\r\n\r\n    struct User {\r\n        string name;\r\n        string username;\r\n        string passwordHash;\r\n        address ethAddress;\r\n    }\r\n\r\n    mapping(address => User) Users;\r\n\r\n    function signup(string memory _name, string memory _username, string memory _passwordHash) public { \r\n        User memory newUser;\r\n        newUser.name = _name;\r\n        newUser.username = _username;\r\n        newUser.passwordHash = _passwordHash;\r\n        ethAddress = msg.sender;\r\n        Users[ethAddress] = newUser;\r\n    }\r\n\r\n    function login(string memory _passwordHash) public view returns (User memory) {\r\n        if (keccak256(bytes(_passwordHash)) == keccak256(bytes(Users[msg.sender].passwordHash))) {\r\n            return Users[msg.sender];\r\n        }\r\n        else {}\r\n        \r\n    }\r\n}",
  "sourcePath": "D:/Workspace/ZeppelinServer/contracts/Customer.sol",
  "compiler": {
    "name": "solc",
    "version": "0.5.0+commit.1d4f565a.Emscripten.clang"
  },
  "schemaVersion": "3.0.0",
  "updatedAt": "2018-12-19T06:18:17.845Z",
  "devdoc": {
    "methods": {}
  },
  "userdoc": {
    "methods": {}
  }
}