{
  "contractName": "Customer",
  "abi": [
    {
      "constant": false,
      "inputs": [
        {
          "name": "_name",
          "type": "string"
        },
        {
          "name": "_username",
          "type": "string"
        },
        {
          "name": "_passwordHash",
          "type": "string"
        }
      ],
      "name": "signup",
      "outputs": [],
      "payable": false,
      "stateMutability": "nonpayable",
      "type": "function"
    },
    {
      "constant": true,
      "inputs": [
        {
          "name": "_passwordHash",
          "type": "string"
        }
      ],
      "name": "login",
      "outputs": [
        {
          "name": "",
          "type": "string"
        },
        {
          "name": "",
          "type": "string"
        }
      ],
      "payable": false,
      "stateMutability": "view",
      "type": "function"
    },
    {
      "constant": true,
      "inputs": [],
      "name": "getUserCount",
      "outputs": [
        {
          "name": "",
          "type": "uint256"
        }
      ],
      "payable": false,
      "stateMutability": "view",
      "type": "function"
    }
  ],
  "bytecode": "0x6080604052600060075534801561001557600080fd5b50610a6c806100256000396000f3fe608060405260043610610057576000357c0100000000000000000000000000000000000000000000000000000000900463ffffffff1680633a7d280c1461005c578063ac0861c314610209578063b5cb15f7146103ff575b600080fd5b34801561006857600080fd5b506101226004803603602081101561007f57600080fd5b810190808035906020019064010000000081111561009c57600080fd5b8201836020820111156100ae57600080fd5b803590602001918460018302840111640100000000831117156100d057600080fd5b91908080601f016020809104026020016040519081016040528093929190818152602001838380828437600081840152601f19601f82011690508083019250505050505050919291929050505061042a565b604051808060200180602001838103835285818151815260200191508051906020019080838360005b8381101561016657808201518184015260208101905061014b565b50505050905090810190601f1680156101935780820380516001836020036101000a031916815260200191505b50838103825284818151815260200191508051906020019080838360005b838110156101cc5780820151818401526020810190506101b1565b50505050905090810190601f1680156101f95780820380516001836020036101000a031916815260200191505b5094505050505060405180910390f35b34801561021557600080fd5b506103fd6004803603606081101561022c57600080fd5b810190808035906020019064010000000081111561024957600080fd5b82018360208201111561025b57600080fd5b8035906020019184600183028401116401000000008311171561027d57600080fd5b91908080601f016020809104026020016040519081016040528093929190818152602001838380828437600081840152601f19601f820116905080830192505050505050509192919290803590602001906401000000008111156102e057600080fd5b8201836020820111156102f257600080fd5b8035906020019184600183028401116401000000008311171561031457600080fd5b91908080601f016020809104026020016040519081016040528093929190818152602001838380828437600081840152601f19601f8201169050808301925050505050505091929192908035906020019064010000000081111561037757600080fd5b82018360208201111561038957600080fd5b803590602001918460018302840111640100000000831117156103ab57600080fd5b91908080601f016020809104026020016040519081016040528093929190818152602001838380828437600081840152601f19601f8201169050808301925050505050505091929192905050506106e1565b005b34801561040b57600080fd5b5061041461085f565b6040518082815260200191505060405180910390f35b60608061051183600560003373ffffffffffffffffffffffffffffffffffffffff1673ffffffffffffffffffffffffffffffffffffffff1681526020019081526020016000206002018054600181600116156101000203166002900480601f0160208091040260200160405190810160405280929190818152602001828054600181600116156101000203166002900480156105075780601f106104dc57610100808354040283529160200191610507565b820191906000526020600020905b8154815290600101906020018083116104ea57829003601f168201915b5050505050610869565b156106db57600560003373ffffffffffffffffffffffffffffffffffffffff1673ffffffffffffffffffffffffffffffffffffffff168152602001908152602001600020600101600560003373ffffffffffffffffffffffffffffffffffffffff1673ffffffffffffffffffffffffffffffffffffffff168152602001908152602001600020600001818054600181600116156101000203166002900480601f01602080910402602001604051908101604052809291908181526020018280546001816001161561010002031660029004801561062f5780601f106106045761010080835404028352916020019161062f565b820191906000526020600020905b81548152906001019060200180831161061257829003601f168201915b50505050509150808054600181600116156101000203166002900480601f0160208091040260200160405190810160405280929190818152602001828054600181600116156101000203166002900480156106cb5780601f106106a0576101008083540402835291602001916106cb565b820191906000526020600020905b8154815290600101906020018083116106ae57829003601f168201915b50505050509050915091506106dc565b5b915091565b6106e961095c565b83816000018190525082816020018190525081816040018190525033600360006101000a81548173ffffffffffffffffffffffffffffffffffffffff021916908373ffffffffffffffffffffffffffffffffffffffff1602179055508060056000600360009054906101000a900473ffffffffffffffffffffffffffffffffffffffff1673ffffffffffffffffffffffffffffffffffffffff1673ffffffffffffffffffffffffffffffffffffffff16815260200190815260200160002060008201518160000190805190602001906107c392919061099b565b5060208201518160010190805190602001906107e092919061099b565b5060408201518160020190805190602001906107fd92919061099b565b5060608201518160030160006101000a81548173ffffffffffffffffffffffffffffffffffffffff021916908373ffffffffffffffffffffffffffffffffffffffff160217905550905050600160076000828254019250508190555050505050565b6000600754905090565b6000816040516020018082805190602001908083835b6020831015156108a4578051825260208201915060208101905060208303925061087f565b6001836020036101000a03801982511681845116808217855250505050505090500191505060405160208183030381529060405280519060200120836040516020018082805190602001908083835b60208310151561091857805182526020820191506020810190506020830392506108f3565b6001836020036101000a0380198251168184511680821785525050505050509050019150506040516020818303038152906040528051906020012014905092915050565b608060405190810160405280606081526020016060815260200160608152602001600073ffffffffffffffffffffffffffffffffffffffff1681525090565b828054600181600116156101000203166002900490600052602060002090601f016020900481019282601f106109dc57805160ff1916838001178555610a0a565b82800160010185558215610a0a579182015b82811115610a095782518255916020019190600101906109ee565b5b509050610a179190610a1b565b5090565b610a3d91905b80821115610a39576000816000905550600101610a21565b5090565b9056fea165627a7a723058202e2ee7918759ce98eae2c295168d4687efcb6e9da0be5094863f5551c624090a0029",
  "source": "//solium-disable linebreak-style\r\npragma solidity ^0.5.0;\r\n//pragma experimental ABIEncoderV2;\r\n\r\ncontract Customer {\r\n    string name;\r\n    string username;\r\n    string passwordHash;\r\n    address ethAddress;\r\n    int userCount;\r\n\r\n    struct User {\r\n        string name;\r\n        string username;\r\n        string passwordHash;\r\n        address ethAddress;\r\n    }\r\n\r\n    mapping(address => User) Users;\r\n    string[] usernames;\r\n    uint count = 0;\r\n\r\n    function signup(string memory _name, string memory _username, string memory _passwordHash) public { \r\n        User memory newUser;\r\n        newUser.name = _name;\r\n        newUser.username = _username;\r\n        newUser.passwordHash = _passwordHash;\r\n        ethAddress = msg.sender;\r\n        Users[ethAddress] = newUser;\r\n        count += 1;\r\n    }\r\n\r\n    function login(string memory _passwordHash) public view returns (string memory, string memory) {\r\n        if (compareStrings(_passwordHash, Users[msg.sender].passwordHash)) {\r\n            return (Users[msg.sender].username,Users[msg.sender].name);\r\n        }\r\n\r\n    }\r\n\r\n    function getUserCount() public view returns (uint) {\r\n        return count;\r\n    }\r\n\r\n    function compareStrings(string memory one, string memory two)\r\n    internal\r\n    pure\r\n    returns (bool)\r\n    {\r\n\r\n        return keccak256(abi.encodePacked(one)) == keccak256(abi.encodePacked(two));\r\n\r\n    }\r\n\r\n\r\n}",
  "sourcePath": "S:/Projects/ZeppelinServer/contracts/Customer.sol",
  "compiler": {
    "name": "solc",
    "version": "0.5.0+commit.1d4f565a.Emscripten.clang"
  },
  "schemaVersion": "3.0.0",
  "updatedAt": "2018-12-20T06:10:49.807Z",
  "devdoc": {
    "methods": {}
  },
  "userdoc": {
    "methods": {}
  }
}