{
  "contractName": "Customer",
  "abi": [
    {
      "constant": false,
      "inputs": [
        {
          "name": "_name",
          "type": "string"
        },
        {
          "name": "_username",
          "type": "string"
        },
        {
          "name": "_passwordHash",
          "type": "string"
        }
      ],
      "name": "signup",
      "outputs": [],
      "payable": false,
      "stateMutability": "nonpayable",
      "type": "function"
    },
    {
      "constant": true,
      "inputs": [
        {
          "name": "_passwordHash",
          "type": "string"
        }
      ],
      "name": "login",
      "outputs": [
        {
          "name": "",
          "type": "string"
        },
        {
          "name": "",
          "type": "string"
        }
      ],
      "payable": false,
      "stateMutability": "view",
      "type": "function"
    },
    {
      "constant": true,
      "inputs": [],
      "name": "getUserCount",
      "outputs": [
        {
          "name": "",
          "type": "uint256"
        }
      ],
      "payable": false,
      "stateMutability": "view",
      "type": "function"
    }
  ],
  "bytecode": "0x6080604052600060075534801561001557600080fd5b506109c4806100256000396000f3fe608060405260043610610057576000357c0100000000000000000000000000000000000000000000000000000000900463ffffffff1680633a7d280c1461005c578063ac0861c31461009a578063b5cb15f7146100c3575b600080fd5b34801561006857600080fd5b50610083600480360361007e919081019061075a565b6100ee565b604051610091929190610877565b60405180910390f35b3480156100a657600080fd5b506100c160048036036100bc919081019061079b565b6103a5565b005b3480156100cf57600080fd5b506100d8610523565b6040516100e591906108ae565b60405180910390f35b6060806101d583600560003373ffffffffffffffffffffffffffffffffffffffff1673ffffffffffffffffffffffffffffffffffffffff1681526020019081526020016000206002018054600181600116156101000203166002900480601f0160208091040260200160405190810160405280929190818152602001828054600181600116156101000203166002900480156101cb5780601f106101a0576101008083540402835291602001916101cb565b820191906000526020600020905b8154815290600101906020018083116101ae57829003601f168201915b505050505061052d565b1561039f57600560003373ffffffffffffffffffffffffffffffffffffffff1673ffffffffffffffffffffffffffffffffffffffff168152602001908152602001600020600101600560003373ffffffffffffffffffffffffffffffffffffffff1673ffffffffffffffffffffffffffffffffffffffff168152602001908152602001600020600001818054600181600116156101000203166002900480601f0160208091040260200160405190810160405280929190818152602001828054600181600116156101000203166002900480156102f35780601f106102c8576101008083540402835291602001916102f3565b820191906000526020600020905b8154815290600101906020018083116102d657829003601f168201915b50505050509150808054600181600116156101000203166002900480601f01602080910402602001604051908101604052809291908181526020018280546001816001161561010002031660029004801561038f5780601f106103645761010080835404028352916020019161038f565b820191906000526020600020905b81548152906001019060200180831161037257829003601f168201915b50505050509050915091506103a0565b5b915091565b6103ad610620565b83816000018190525082816020018190525081816040018190525033600360006101000a81548173ffffffffffffffffffffffffffffffffffffffff021916908373ffffffffffffffffffffffffffffffffffffffff1602179055508060056000600360009054906101000a900473ffffffffffffffffffffffffffffffffffffffff1673ffffffffffffffffffffffffffffffffffffffff1673ffffffffffffffffffffffffffffffffffffffff168152602001908152602001600020600082015181600001908051906020019061048792919061065f565b5060208201518160010190805190602001906104a492919061065f565b5060408201518160020190805190602001906104c192919061065f565b5060608201518160030160006101000a81548173ffffffffffffffffffffffffffffffffffffffff021916908373ffffffffffffffffffffffffffffffffffffffff160217905550905050600160076000828254019250508190555050505050565b6000600754905090565b6000816040516020018082805190602001908083835b6020831015156105685780518252602082019150602081019050602083039250610543565b6001836020036101000a03801982511681845116808217855250505050505090500191505060405160208183030381529060405280519060200120836040516020018082805190602001908083835b6020831015156105dc57805182526020820191506020810190506020830392506105b7565b6001836020036101000a0380198251168184511680821785525050505050509050019150506040516020818303038152906040528051906020012014905092915050565b608060405190810160405280606081526020016060815260200160608152602001600073ffffffffffffffffffffffffffffffffffffffff1681525090565b828054600181600116156101000203166002900490600052602060002090601f016020900481019282601f106106a057805160ff19168380011785556106ce565b828001600101855582156106ce579182015b828111156106cd5782518255916020019190600101906106b2565b5b5090506106db91906106df565b5090565b61070191905b808211156106fd5760008160009055506001016106e5565b5090565b90565b600082601f830112151561071757600080fd5b813561072a610725826108f6565b6108c9565b9150808252602083016020830185838301111561074657600080fd5b610751838284610937565b50505092915050565b60006020828403121561076c57600080fd5b600082013567ffffffffffffffff81111561078657600080fd5b61079284828501610704565b91505092915050565b6000806000606084860312156107b057600080fd5b600084013567ffffffffffffffff8111156107ca57600080fd5b6107d686828701610704565b935050602084013567ffffffffffffffff8111156107f357600080fd5b6107ff86828701610704565b925050604084013567ffffffffffffffff81111561081c57600080fd5b61082886828701610704565b9150509250925092565b600061083d82610922565b808452610851816020860160208601610946565b61085a81610979565b602085010191505092915050565b6108718161092d565b82525050565b600060408201905081810360008301526108918185610832565b905081810360208301526108a58184610832565b90509392505050565b60006020820190506108c36000830184610868565b92915050565b6000604051905081810181811067ffffffffffffffff821117156108ec57600080fd5b8060405250919050565b600067ffffffffffffffff82111561090d57600080fd5b601f19601f8301169050602081019050919050565b600081519050919050565b6000819050919050565b82818337600083830152505050565b60005b83811015610964578082015181840152602081019050610949565b83811115610973576000848401525b50505050565b6000601f19601f830116905091905056fea265627a7a72305820907205bd800f6948e4c192cdda901e710146fa2d6d5abcbec12d0d895735d8766c6578706572696d656e74616cf50037",
  "source": "//solium-disable linebreak-style\r\npragma solidity ^0.5.0;\r\npragma experimental ABIEncoderV2;\r\n\r\ncontract Customer {\r\n    string name;\r\n    string username;\r\n    string passwordHash;\r\n    address ethAddress;\r\n    int userCount;\r\n\r\n    struct User {\r\n        string name;\r\n        string username;\r\n        string passwordHash;\r\n        address ethAddress;\r\n    }\r\n\r\n    mapping(address => User) Users;\r\n    string[] usernames;\r\n    uint count = 0;\r\n\r\n    function signup(string memory _name, string memory _username, string memory _passwordHash) public { \r\n        User memory newUser;\r\n        newUser.name = _name;\r\n        newUser.username = _username;\r\n        newUser.passwordHash = _passwordHash;\r\n        ethAddress = msg.sender;\r\n        Users[ethAddress] = newUser;\r\n        count += 1;\r\n    }\r\n\r\n    function login(string memory _passwordHash) public view returns (string memory, string memory) {\r\n        if (compareStrings(_passwordHash, Users[msg.sender].passwordHash)) {\r\n            return (Users[msg.sender].username,Users[msg.sender].name);\r\n        }\r\n\r\n    }\r\n\r\n    function getUserCount() public view returns (uint) {\r\n        return count;\r\n    }\r\n\r\n    function compareStrings(string memory one, string memory two)\r\n    internal\r\n    pure\r\n    returns (bool)\r\n    {\r\n\r\n        return keccak256(abi.encodePacked(one)) == keccak256(abi.encodePacked(two));\r\n\r\n    }\r\n\r\n\r\n}",
  "sourcePath": "D:/Workspace/ZeppelinServer/contracts/Customer.sol",
  "compiler": {
    "name": "solc",
    "version": "0.5.0+commit.1d4f565a.Emscripten.clang"
  },
  "schemaVersion": "3.0.0",
  "updatedAt": "2018-12-20T05:36:17.807Z",
  "devdoc": {
    "methods": {}
  },
  "userdoc": {
    "methods": {}
  }
}